:100000008808001039070000000000000000000010
:1000100000000000000000000000000000000000E0
:1000200038B5026943698469C56912196B41026177
:10003000436103685B68984738BD704770470000AC
:10004000044B8268036043689A6082685360406032
:1000500080607047F80900000F4BF0B59C680F4BAB
:10006000E4431A682402240A1D1C0D49944207D255
:100070000E684F68074B064A92197B410A604B6035
:100080000F6849682C603C4304604160F0BDC04685
:10009000000000010000000010E000E0300400104B
:1000A00028040010C046C046F8B5061C0D1C0024EC
:1000B000301C0A2100F0B6FB301C0F1C0A2100F096
:1000C0006DFB021C061C3A430B4B05D1002C03D0E0
:1000D000002D01D11D5502E0084AD25D1A55EA07EC
:1000E00005D51B191978802252420A431A7001342F
:1000F0006D08042CDCD1F8BD74040010D009000098
:1001000037B50C4D0A4C6846FFF7A6FF009A019BD5
:10011000A4185D416846FFF79FFF019B009A9D422E
:10012000F8DC01D19442F5D837BDC046C046C04680
:10013000D85D000000000000094B8022D96F5202F8
:100140000A43DA67074B07211A688A4381210A4369
:100150001A60054B01211A688A431A607047C0462D
:10016000048004407840044000800150094B802204
:10017000D96F52020A43DA67074B07211A688A438C
:1001800001210A431A60054B80221968D2000A43F4
:100190001A607047048004406840044000800050AA
:1001A0000123011C1940094A4942116041081940C4
:1001B000074A4942116081081940064A4942C0086D
:1001C00011600340044A5B4213607047000801500D
:1001D0000004015080000150400001501B4A802063
:1001E000D36F4002034330B5D367194B07211C6816
:1001F0008C431C60174B80241D68A4002C431C609A
:10020000D46F0443D467144C25688D4325601D6862
:10021000802464002C431C60D46F0443D4670F4CCB
:1002200025688D4325601C6820252C431C60D46FF5
:100230002043D0670A4A10688843011C802001438C
:1002400011601A6810210A431A6030BD048004400E
:10025000384004400080015014400440A040044055
:10026000944004400F4B1A78002A1AD101221A70C8
:100270000D4B8E22920098588021084398502320DD
:100280009860985888439850D8680121064A0842D7
:10029000FAD003231367536F8B435367536F19438C
:1002A00051677047340400100080044008B5FFF720
:1002B000D9FF044B044900221A6059609A60012258
:1002C0001A6008BD10E000E0FFFFFF00012210B53A
:1002D0000240184B1021002A03D01A688A431A6082
:1002E00004E01C682143196013490A604008012298
:1002F00002402021002A02D01A688A4303E01C68C9
:10030000214319600D4B1A604108012319400C4A22
:1003100049421160810819400A4A49421160C108E6
:100320001940094A4942000911600340074A5B42EB
:10033000136010BD0080005040000050800000504D
:10034000000100500002005000040050000800505E
:1003500008B5FF235840011C01231940054A4942B2
:10036000116042081340044A5B4213608008FFF7A3
:10037000ADFF08BD100000502000005010B50B4C20
:1003800023680133032B00D9002300202360FFF7EB
:1003900007FF2268064B985CFFF7DAFF236801200D
:1003A0009840C0B2FFF7FCFE10BDC04670040010BC
:1003B0007404001010B50B4C23680133032B00D9D3
:1003C000002300202360FFF7EBFE2268064B985CB9
:1003D000FFF7BEFF236801209840C0B2FFF7E0FEA0
:1003E00010BDC0467004001074040010144A802030
:1003F000D36F4002034330B5D367124B07211C680B
:1004000080258C431C60104B1C682C431C60D46FEF
:100410000443D4670D4C25688D4325601D688024F6
:1004200064002C431C60D46F2043D067084A1068D6
:10043000884310601968802292000A431A6030BD18
:10044000048004405040044000800050604004405C
:10045000644004401A4A38B58020D36F40020343F9
:10046000D367184B07211C6808258C431C60164B6A
:100470001C682C431C60D46F0443D467134C25685C
:100480008D4325601C6810252C431C60D46F0443E9
:10049000D4670F4C25688D4325601C6820252C43AC
:1004A0001C60D46F2043D0670A4A106888431060EC
:1004B0001A6840210A431A60FFF798FF38BDC0460A
:1004C000048004402C400440008000503040044030
:1004D000344004404C400440F7B5FFF7E7FEFFF717
:1004E0007DFE294B8022D96F52020A43DA67274BDF
:1004F00007211A6801278A431A60254B04211A68CC
:100500000A431A60FFF7A6FF224B00221A60224B13
:10051000224E1A683A422ED1214B1A4D184C3360A4
:10052000B461F5617660B6606846FFF795FD0099A5
:10053000019A641855411B4A3461756111681A4B60
:10054000394204D119495B6019609B601760B1683A
:100550007268301C9160B1684A605A68B3605E602E
:10056000134B726096600C4A33600123136011498B
:10057000114A00F00BF9301CFFF71CFFF7BDC04615
:10058000C0794E0E00000000048004401C4004406E
:10059000008000507004001080040010500400100F
:1005A000080A00007C04001038040010E80900006C
:1005B000180A00004100000084040010C046C04634
:1005C000F8B5214CFFF7B8FD8027E36F7F023B436E
:1005D000E3671E4B07261A688121B2431C4D0A436C
:1005E0001A602B68022293432B60E36F3B43E3675F
:1005F000184B1A68B2430A431A602B6804229343CB
:100600002B60FFF7B3FDE36F81213B43E367124BA0
:100610001A68B2430A431A60104B8022196812010B
:100620000A431A60E36F81211F430D4BE7671A6885
:10063000B2430A431A602B68082213432B60FFF76A
:100640004BFFFFF733FEF8BD048004407C400440BC
:1006500000800150804004407440044000800050FD
:100660009040044000000000F0B585B0FFF7A8FFFF
:10067000FFF762FDFFF77AFD02A8FFF7EDFC029C91
:10068000039DFA200122C0000421FFF70DFDFFF7B2
:1006900075FEFFF735FD264B00221A60254A01271B
:1006A0001268FA2697430197F600019B002BE3D0CE
:1006B000301C04210122FFF7F7FC3227013FFFF72E
:1006C0005DFEFFF71DFD002FF8D102A8FFF7C4FC67
:1006D000039B029AAB4202DC13D1A24211D9013E24
:1006E000301C6421114B104AA4185D4100F0FAF847
:1006F000632906D1301C642100F09EF8642646432D
:100700003B36002ED1D10123094A5B42FA27136000
:100710007F00013FFFF732FEFFF7F2FC002FF8D118
:100720000197C2E7C046C04600366E0100000000D7
:1007300000100050FC3F015010B50F4B0F4A191D1F
:10074000043B934203D000221A600B1CF6E70C4ACC
:100750000C490023891A89080131890004338B422E
:1007600007D0094CD0181C19043C246804380460D4
:10077000F4E7FFF779FFFEE72C040010880400106F
:100780000000001028040010300A000008B5031C07
:10079000081C191C00F0B2F808BDC046002934D06E
:1007A0000123002210B488422CD301242407A14243
:1007B00004D2814202D209011B01F8E7E400A14200
:1007C00004D2814202D249005B00F8E7884201D39B
:1007D000401A1A434C08A04202D3001B5C08224373
:1007E0008C08A04202D3001B9C082243CC08A042E4
:1007F00002D3001BDC082243002803D01B0901D0D0
:100800000909E3E7101C10BC7047002801D0002044
:10081000C04307B4024802A14018029003BDC0467D
:10082000D90000000029F0D003B5FFF7B9FF0EBCD6
:100830004243891A1847C046002941D010B4041C0D
:100840004C40A44601230022002900D5494200283B
:1008500000D5404288422CD301242407A14204D26F
:10086000814202D209011B01F8E7E400A14204D24F
:10087000814202D249005B00F8E7884201D3401A66
:100880001A434C08A04202D3001B5C0822438C0888
:10089000A04202D3001B9C082243CC08A04202D3F2
:1008A000001BDC082243002803D01B0901D00909E2
:1008B000E3E7101C6446002C00D5404210BC704792
:1008C000002806D003DB0020C043400801E0802060
:1008D000000607B4024802A14018029003BDC046BA
:1008E000190000000029EBD003B5FFF7A7FF0EBCED
:1008F0004243891A1847C0467047C04638B5051CA0
:100900000C1C131C291C221C022000F001F838BD0D
:10091000F0B54F464646C0B498462B4BA4251B68FD
:100920006D005C5983B0061C0F1C91460193002C8E
:1009300044D065681F2D1ADD244B002B02D1012005
:1009400040421CE0C820400000E000BF041EF6D07A
:1009500000254560A42301985B00C05801992060E0
:10096000CC50C4235B00E550C6235B00E550002E4D
:100970000AD16B1C0235AD00636000202F5103B01B
:100980000CBC90469946F0BDAB00E318882248465F
:100990009850C4204000221810680121A940084343
:1009A00010608422520040469850022EE1D1C622A7
:1009B0005200A318186801431960DAE71C1C4D3473
:1009C000FF345C51B5E7C046240A00000000000077
:1009D0003F065B4F666D7D077F6F777C395E79716F
:1009E00000000000000000003D00000000000000CA
:1009F00000000000000000003D0000003B0000007F
:100A00000000000000000000210000003B0000008A
:100A1000000000000000000021000000B5030000FD
:080A200043000000000000107B
:080A280064FDFF7F01000000E6
:100A300000000000EC02001054030010BC03001082
:100A400000000000000000000000000000000000A6
:100A50000000000000000000000000000000000096
:100A600000000000200A000000000000000000005C
:100A70000000000000000000000000000000000076
:100A80000000000000000000000000000000000066
:100A90000000000000000000000000000000000056
:100AA0000000000000000000000000000000000046
:100AB0000000000000000000000000000000000036
:100AC0000000000000000000000000000000000026
:100AD0000000000000000000010000000000000015
:100AE0000E33CDAB34126DE6ECDE05000B000000DA
:100AF00000000000000000000000000000000000F6
:100B000000000000000000000000000000000000E5
:100B100000000000000000000000000000000000D5
:100B200000000000000000000000000000000000C5
:0400000300000739B9
:00000001FF
