:100000002804001049040000000000000000000067
:1000100000000000000000000000000000000000E0
:10002000024B5A695106FBD51860704700800040AA
:100030000E4B01221A700E4B8E229200985880218E
:100040000843985023209860985888439850D8685F
:100050000121074A0842FAD003231367536F8B43E9
:100060005367536F194351677047C046240000100F
:100070000080044038B5051C0C1C002C06DD2B69E3
:10008000287A002B00D09847013CF6E738BD0000E5
:1000900038B5244B1B78002B01D1FFF7C9FF224B49
:1000A00080229203DA67214B8022D96F52020A43E1
:1000B000DA67DA6F802040010243DA671C4A0725BD
:1000C0001168A9431160146801210C431460194A96
:1000D0001468AC43146014680C431460DA6F164C57
:1000E0001043D8678323E360144B15481960154B00
:1000F00096219B6F0903594300F0D0F9030A63600E
:10010000C0B203232060E360A56063696269602375
:100110001340602BFAD16369DA0702D5064B1B68DE
:10012000F9E738BD2400001004E100E00480044039
:10013000A4400440A840044000800040988004404F
:10014000006CDC020080044008B5074B1B78002BD4
:1001500001D1FFF76DFF054B054900221A60596078
:100160009A6001221A6008BD2400001010E000E02F
:10017000FFFFFF00000000000F4BF0B59C680F4B25
:10018000E4431A682402240A1D1C0D49944207D234
:100190000E684F68074B064A92197B410A604B6014
:1001A0000F6849682C603C4304604160F0BDC04664
:1001B000000000010000000010E000E0200000103E
:1001C00018000010C046C04637B5041C0D1C684618
:1001D000FFF7D2FF009A019BA4185D416846FFF724
:1001E000CBFF019B009A9D42F8DC01D19442F5D8E7
:1001F00037BD0000064B10221968002802D0914339
:10020000196003E00A431A60024B18607047C04649
:100210000080005040000050064B20221968002842
:1002200002D09143196003E00A431A60024B186040
:100230007047C0460080005080000050F8B5124D55
:10024000FFF782FF8027EB6F7F023B43EB670F4B8B
:1002500007261A680E4CB2431A6023681022134313
:1002600023600120FFF7C6FFEB6F01201F43094BFE
:10027000EF671A68B2431A60236820221343236091
:10028000FFF7CAFFF8BDC046048004403040044078
:10029000008000503440044008B590200021FFF752
:1002A00093FF08BD38B5051C08240020FFF7A2FF06
:1002B000FFF7F2FFE809FFF7AFFF6D000120013CF7
:1002C000FFF798FFEDB2FFF7E7FF002CEDD138BD47
:1002D00010B50020FFF78EFFFFF7DEFF0120FFF7CC
:1002E0009BFF0120FFF786FFFFF7D6FF034B1C683B
:1002F000FFF7D2FFA406E00F10BDC046FC3F005040
:1003000070B5041C00200D1C161C6400FFF784FF50
:10031000FFF7C2FF0020FFF76DFFFFF7BDFFE0B260
:10032000FFF7C0FF2C1C631BB34206DAFFF7D0FFB8
:100330002078FFF7B7FF0134F5E7FFF7C9FF00208A
:10034000FFF758FFFFF7A8FF0020FFF765FFFFF753
:10035000A3FF0120FFF74EFFFFF79EFF0120FFF7ED
:100360005BFFFFF799FF70BDF8B5041C0D1CFFF78C
:10037000EBFEFFF763FF0026114F072E0EDC012274
:10038000131CB340DB433820391C3B70FFF7B8FF28
:10039000201C291CFFF718FF0136EDE70626012275
:1003A000131CB340DB433820391C3B70013EFFF780
:1003B000A7FF201C291CFFF707FF002EEFD1DBE76A
:1003C000250000100000000070B5FFF761FE1A4C18
:1003D0001A4B1B4D2361A37A002B0AD021680023FE
:1003E000EA5C002A01D00133FAE7C91A201CFFF7A2
:1003F00041FE2E1C3078002805D02369002B00D048
:1004000098470136F6E7A37A002B09D12168EA5C08
:10041000002A01D00133FAE7C91A201CFFF72AFE8F
:100420000449034800232360FFF79EFFC046C046EF
:10043000009F2400000000000000001021000000C8
:100440003C050000C046C04610B50F4B0F4A191DB1
:10045000043B934203D000221A600B1CF6E70C4ABF
:100460000C490023891A89080131890004338B4221
:1004700007D0094CD0181C19043C246804380460C7
:10048000F4E7FFF7A1FFFEE71C00001028000010B2
:10049000000000101400001068050000002934D08E
:1004A0000123002210B488422CD301242407A14246
:1004B00004D2814202D209011B01F8E7E400A14203
:1004C00004D2814202D249005B00F8E7884201D39E
:1004D000401A1A434C08A04202D3001B5C08224376
:1004E0008C08A04202D3001B9C082243CC08A042E7
:1004F00002D3001BDC082243002803D01B0901D0D3
:100500000909E3E7101C10BC7047002801D0002047
:10051000C04307B4024802A14018029003BDC04680
:10052000190000000029F0D003B5FFF7B9FF0EBC99
:100530004243891A1847C0467047C0466B697474B5
:10054000206F6E2038204C45447320286163746905
:1005500076652D6C6F7729206F6E206120504346A1
:0805600038353734410000007A
:10056800000000000A000000204101000000000017
:04057800000000007F
:0400000300000449AC
:00000001FF
