:1000000008040010F50200000000000000000000DD
:1000100000000000000000000000000000000000E0
:1000200001210140CAB230B51C4B1024002A05D072
:100030001A68A2431A600122524204E01D682C4350
:100040001C60174C2260174C400822604A42164937
:1000500020240A6015490A6001210140CAB2002A21
:1000600005D01A68A2431A600122524204E01D68BA
:100070002C431C600E4B1A600E4B80071A600E4A10
:100080004B4213600D4AC01713600D4B18600D4BA7
:1000900018600D4B18600D4B186030BD008000508B
:1000A000400000500002005010000150800001503C
:1000B0008000005004000150200001500004015055
:1000C000000100500800015040000150000801509C
:1000D000031C181C04E0C046C046C046C046C046CB
:1000E0000138FDDC7047C046C046C046C046C04629
:1000F0000F4B1A78002A1AD101221A700D4B8E224A
:10010000920098588021084398502320986098586E
:1001100088439850D8680121064A0842FAD0032340
:100120001367536F8B435367536F1943516770477E
:100130000000001000800440334B8020DA6F400242
:100140000243F0B5DA67314A0721146820258C4351
:1001500014602F4C012722682A432260DA6F812520
:100160000243DA672B4A16688E432E4316602A4AEA
:1001700016683E431660DE6F0643DE67274E37681B
:100180008F432F433760166808273E431660DE6FA3
:100190000643DE67224E37688F4337601768802634
:1001A00076003E431660DE6F0643DE671D4E3768FD
:1001B0008F433760266840273E432660DC6F044348
:1001C000DC67194C26688E43354325601468022588
:1001D0002C431460DC6F80260443DC67134C2568D5
:1001E0008D4335432560146810252C431460DC6F63
:1001F0002043D8670E4B1868884318601168B30015
:100200000B431360F0BDC0460480044034400440FA
:10021000008000507840044000800150904004402D
:10022000144004404C4004407C400440944004404E
:10023000384004401A4B8020DA6F4002024330B548
:10024000DA67184A0721146810258C431460164A8F
:1002500014682C431460DC6F0443DC67134C25687E
:100260008D432560146880252C431460DA6F812546
:100270000243DA670E4A14688C432C4314600D4A1B
:10028000042514682C431460DC6F2043D8670A4BA4
:10029000186888431860136820210B43136030BD31
:1002A000048004403040044000800050504004402E
:1002B0008040044000800150A040044010B5FFF78A
:1002C00017FFFFF7B7FFFFF737FF0024022C08DC0A
:1002D0000120A040FFF7A4FE0548FFF7F9FE013416
:1002E000F4E70220FFF79CFE0148FFF7F1FEECE780
:1002F000804F120010B50F4B0F4A191D043B93425B
:1003000003D000221A600B1CF6E70C4A0C490023AC
:10031000891A89080131890004338B4207D0094CBE
:10032000D0181C19043C246804380460F4E7FFF773
:10033000C5FFFEE7040000100400001000000010DC
:0803400000000010480300005A
:04000003000002F502
:00000001FF
