:1000000028040010B10500000000000000000000FE
:1000100000000000000000000000000000000000E0
:10002000024B5A695106FBD51860704700800040AA
:100030000E4B01221A700E4B8E229200985880218E
:100040000843985023209860985888439850D8685F
:100050000121074A0842FAD003231367536F8B43E9
:100060005367536F194351677047C046240000100F
:100070000080044038B5051C0C1C002C06DD2B69E3
:10008000287A002B00D09847013CF6E738BD70B5C0
:10009000837A041C0D1C002B0BD001682B1C1878D4
:1000A0005A1B002801D00133F9E7891A201CFFF7F9
:1000B000E1FF2E1C3078002805D02369002B00D0EA
:1000C00098470136F6E7A37A002B0BD121682B1C49
:1000D00018785A1B002801D00133F9E7891A201C2F
:1000E000FFF7C8FF0023201C236070BD70B594B0DB
:1000F0006B4649330022041C0D1C1A7013934E42A8
:1001000091421EDB0E1E1CD112AB302213931A70CB
:1001100017E0301C616800F019FBC9B20A1C3032CC
:10012000637AD2B2092903D91A1C0A3A8918CAB2C9
:10013000139B301C013B13931A70616800F0B0FAF6
:10014000061C002EE5DC637B002B22D06368082BA5
:1001500010D006DC022B12D1139B6222013B1393B9
:1001600011E00A2B15D0102B09D1139B7822013BEB
:10017000139308E0139B6F22013B139303E0139B3F
:100180003F22013B13931A70139B3022013B1393C0
:100190001A70002D04DA139B2D22013B139306E005
:1001A000E37A002B04D0139B2B22013B13931A708C
:1001B0001399201CFFF76BFF201C14B070BD0000CA
:1001C00038B5244B1B78002B01D1FFF731FF224BB0
:1001D00080229203DA67214B8022D96F52020A43B0
:1001E000DA67DA6F802040010243DA671C4A07258C
:1001F0001168A9431160146801210C431460194A65
:100200001468AC43146014680C431460DA6F164C25
:100210001043D8678323E360144B15481960154BCE
:1002200096219B6F0903594300F0ECF9030A6360C0
:10023000C0B203232060E360A56063696269602344
:100240001340602BFAD16369DA0702D5064B1B68AD
:10025000F9E738BD2400001004E100E00480044008
:10026000A4400440A840044000800040988004401E
:10027000006CDC020080044008B5074B1B78002BA3
:1002800001D1FFF7D5FE054B054900221A605960E0
:100290009A6001221A6008BD2400001010E000E0FE
:1002A000FFFFFF00000000000F4BF0B59C680F4BF4
:1002B000E4431A682402240A1D1C0D49944207D203
:1002C0000E684F68074B064A92197B410A604B60E3
:1002D0000F6849682C603C4304604160F0BDC04633
:1002E000000000010000000010E000E0200000100D
:1002F00018000010C046C04637B5041C0D1C6846E7
:10030000FFF7D2FF009A019BA4185D416846FFF7F2
:10031000CBFF019B009A9D42F8DC01D19442F5D8B5
:1003200037BD0000064B10221968002802D0914307
:10033000196003E00A431A60024B18607047C04618
:100340000080005040000050064B20221968002811
:1003500002D09143196003E00A431A60024B18600F
:100360007047C0460080005080000050F8B5124D24
:10037000FFF782FF8027EB6F7F023B43EB670F4B5A
:1003800007261A680E4CB2431A60236810221343E2
:1003900023600120FFF7C6FFEB6F01201F43094BCD
:1003A000EF671A68B2431A60236820221343236060
:1003B000FFF7CAFFF8BDC046048004403040044047
:1003C000008000503440044008B590200021FFF721
:1003D00093FF08BD08B50020FFF7B6FFFFF7F4FF55
:1003E0000020FFF79FFFFFF7EFFF08BD08B50020D3
:1003F000FFF798FFFFF7E8FF0020FFF7A5FFFFF7E3
:10040000E3FF0120FFF78EFFFFF7DEFF0120FFF77C
:100410009BFFFFF7D9FF08BD10B5041C0020FFF7B4
:1004200081FFFFF7D1FF201CFFF78EFF0120FFF7B0
:1004300079FFFFF7C9FF10BD38B5051C0824E8098E
:10044000013C6D00FFF7E8FFEDB2002CF7D138BD9D
:1004500010B50020FFF766FFFFF7B6FF0120FFF79A
:1004600073FF0120FFF75EFFFFF7AEFF034B1C6831
:10047000FFF7AAFFA406E00F10BDC046FC3F0050E6
:1004800008B5FFF7E5FF01235840C0B208BD38B5F5
:10049000041C4034FFF79EFF9020FFF7CDFFFFF7CD
:1004A000EFFFE0B2FFF7C8FFFFF7EAFFFFF79EFF9D
:1004B000FFF790FF9120FFF7BFFFFFF7E1FF082450
:1004C000013CFFF7C5FF002CFAD1201CFFF7A4FF69
:1004D00008256400E4B2FFF7BBFF002806D1013D08
:1004E000002DF6D1FFF782FF201C38BD01231C43ED
:1004F000E4B2F4E700000000F8B5FFF761FE264B18
:10050000264D27492B61281CFFF7C1FDFFF7B4FEDC
:10051000FFF72CFFFFF72AFFFFF728FFFFF726FF63
:100520001C491B48FFF7E8FE03260A2300206B60E6
:100530002E60FFF7ACFF011C281CFFF7D7FD194CFC
:10054000211CFFF7A4FD071C0120FFF7A0FF011CE1
:10055000381CFFF7CBFD211CFFF799FD071C02207B
:10056000FFF795FF011C381CFFF7C0FD211CFFF7AA
:100570008EFD041C301CFFF78AFF011C201CFFF7B6
:10058000B5FD0949FFF783FDCAE7C046C046C0462E
:10059000181BB70000000000210000000000001040
:1005A000640700008A07000088070000C046C046B4
:1005B00010B50F4B0F4A191D043B934203D0002284
:1005C0001A600B1CF6E70C4A0C490023891A8908AB
:1005D0000131890004338B4207D0094CD0181C1913
:1005E000043C246804380460F4E7FFF785FFFEE765
:1005F0001C00001028000010000000101400001063
:1006000090070000002934D00123002210B4884252
:100610002CD301242407A14204D2814202D2090131
:100620001B01F8E7E400A14204D2814202D2490052
:100630005B00F8E7884201D3401A1A434C08A042F5
:1006400002D3001B5C0822438C08A04202D3001B8B
:100650009C082243CC08A04202D3001BDC082243A2
:10066000002803D01B0901D00909E3E7101C10BCC6
:100670007047002801D00020C04307B4024802A1FF
:100680004018029003BDC046D90000000029F0D0F8
:1006900003B5FFF7B9FF0EBC4243891A1847C0469D
:1006A000002941D010B4041C4C40A4460123002270
:1006B000002900D54942002800D5404288422CD369
:1006C00001242407A14204D2814202D209011B0164
:1006D000F8E7E400A14204D2814202D249005B0063
:1006E000F8E7884201D3401A1A434C08A04202D3CB
:1006F000001B5C0822438C08A04202D3001B9C080C
:100700002243CC08A04202D3001BDC08224300286D
:1007100003D01B0901D00909E3E7101C6446002C33
:1007200000D5404210BC7047002806D003DB0020F3
:10073000C043400801E08020000607B4024802A13F
:100740004018029003BDC046190000000029EBD0FC
:1007500003B5FFF7A7FF0EBC4243891A1847C046EE
:100760007047C0467265616420746865203420411A
:100770002F44206368616E6E656C73206F66206124
:1007800020504346383539310A002020000000004F
:10079000000000000A0000002041010000000000ED
:0407A0000000000055
:04000003000005B143
:00000001FF
