:1000000028040010D50300000000000000000000DC
:1000100000000000000000000000000000000000E0
:10002000024B5A695106FBD51860704700800040AA
:100030000E4B01221A700E4B8E229200985880218E
:100040000843985023209860985888439850D8685F
:100050000121074A0842FAD003231367536F8B43E9
:100060005367536F194351677047C046240000100F
:100070000080044038B5051C0C1C002C06DD2B69E3
:10008000287A002B00D09847013CF6E738BD0000E5
:1000900038B5244B1B78002B01D1FFF7C9FF224B49
:1000A00080229203DA67214B8022D96F52020A43E1
:1000B000DA67DA6F802040010243DA671C4A0725BD
:1000C0001168A9431160146801210C431460194A96
:1000D0001468AC43146014680C431460DA6F164C57
:1000E0001043D8678323E360144B15481960154B00
:1000F00096219B6F0903594300F096F9030A636048
:10010000C0B203232060E360A56063696269602375
:100110001340602BFAD16369DA0702D5064B1B68DE
:10012000F9E738BD2400001004E100E00480044039
:10013000A4400440A840044000800040988004404F
:10014000006CDC020080044008B5074B1B78002BD4
:1001500001D1FFF76DFF054B054900221A60596078
:100160009A6001221A6008BD2400001010E000E02F
:10017000FFFFFF00064B10221968002802D09143B0
:10018000196003E00A431A60024B18607047C046CA
:100190000080005040000050064B202219680028C3
:1001A00002D09143196003E00A431A60024B1860C1
:1001B0007047C0460080005080000050F8B5124DD6
:1001C000FFF7C2FF8027EB6F7F023B43EB670F4BCC
:1001D00007261A680E4CB2431A6023681022134394
:1001E00023600120FFF7C6FFEB6F01201F43094B7F
:1001F000EF671A68B2431A60236820221343236012
:10020000FFF7CAFFF8BDC0460480044030400440F8
:1002100000800050344004400F4BF0B59C680F4BF9
:10022000E4431A682402240A1D1C0D49944207D293
:100230000E684F68074B064A92197B410A604B6073
:100240000F6849682C603C4304604160F0BDC046C3
:10025000000000010000000010E000E0200000109D
:1002600018000010C046C04637B5902400256846E7
:10027000FFF7D2FF009A019BA4185D416846FFF783
:10028000CBFF019B009A9D42F8DC01D19442F5D846
:1002900037BD38B5051C08240020FFF76BFFFFF7BA
:1002A000E3FFE809FFF778FF6D000120013CFFF74D
:1002B00061FFEDB2FFF7D8FF002CEDD138BD000093
:1002C00010B50020FFF756FFFFF7CEFF0120FFF724
:1002D00063FF0120FFF74EFFFFF7C6FF034B1C68CB
:1002E000FFF7C2FFA406E00F10BDC046FC3F005060
:1002F00070B5FFF7CDFE334D334B344C2B61AB7AE9
:10030000002B0AD029680023E25C002A01D00133C7
:10031000FAE7C91A281CFFF7ADFE261C3078002822
:1003200005D02B69002B00D098470136F6E7AB7A51
:10033000002B09D12968E25C002A01D00133FAE7D9
:10034000C91A281CFFF796FE00242C60FFF7FCFE5C
:10035000FFF734FF1E4B00201D5DFFF71DFFFFF769
:1003600083FF0020FFF706FFFFF77EFF9020FFF7D7
:1003700090FFFFF7A5FF4020FFF78BFFFFF7A0FFDF
:10038000281CFFF786FFFFF79BFF0020FFF7F2FE18
:10039000FFF76AFF0020FFF7FFFEFFF765FF012070
:1003A000FFF7E8FE0134FFF75FFF0120FFF7F4FEDF
:1003B000FFF75AFFE10F00236322A2424B415B4249
:1003C0001C40C7E700000010210000002C050000C1
:1003D000C804000010B50F4B0F4A191D043B93428F
:1003E00003D000221A600B1CF6E70C4A0C490023CC
:1003F000891A89080131890004338B4207D0094CDE
:10040000D0181C19043C246804380460F4E7FFF792
:100410006FFFFEE71C000010280000100000001015
:100420001400001064050000002934D001230022CC
:1004300010B488422CD301242407A14204D2814263
:1004400002D209011B01F8E7E400A14204D2814273
:1004500002D249005B00F8E7884201D3401A1A43F0
:100460004C08A04202D3001B5C0822438C08A04227
:1004700002D3001B9C082243CC08A04202D3001BDD
:10048000DC082243002803D01B0901D00909E3E757
:10049000101C10BC7047002801D00020C04307B4D6
:1004A000024802A14018029003BDC0461900000096
:1004B0000029F0D003B5FFF7B9FF0EBC4243891AFB
:1004C0001847C0467047C046897F766D645C534BC1
:1004D000443C352F29231D1814100C090604020171
:1004E00000000001020406090C0F13181D22282E1B
:1004F000343B4249505860686F77808890979FA737
:10050000AFB6BDC4CBD1D7DDE2E7ECF0F3F6F9FB33
:10051000FDFEFFFFFFFEFDFBF9F6F3EFEBE7E2DC8C
:10052000D6D0CAC3BBB4ACA39B92898077726974DE
:10053000652061203130302D737465702073696ED1
:100540006520746F2074686520642F61206F757456
:10055000707574206F6620612050434638353931FC
:040560000A0000008D
:10056400000000000A00000020410100000000001B
:040574000000000083
:04000003000003D521
:00000001FF
