:10000000280400107105000000000000000000003E
:1000100000000000000000000000000000000000E0
:10002000024B5A695106FBD51860704700800040AA
:100030000E4B01221A700E4B8E229200985880218E
:100040000843985023209860985888439850D8685F
:100050000121074A0842FAD003231367536F8B43E9
:100060005367536F194351677047C046240000100F
:100070000080044038B5051C0C1C002C06DD2B69E3
:10008000287A002B00D09847013CF6E738BD70B5C0
:10009000837A041C0D1C002B0BD001682B1C1878D4
:1000A0005A1B002801D00133F9E7891A201CFFF7F9
:1000B000E1FF2E1C3078002805D02369002B00D0EA
:1000C00098470136F6E7A37A002B0BD121682B1C49
:1000D00018785A1B002801D00133F9E7891A201C2F
:1000E000FFF7C8FF0023201C236070BD70B594B0DB
:1000F0006B4649330022041C0D1C1A7013934E42A8
:1001000091421EDB0E1E1CD112AB302213931A70CB
:1001100017E0301C616800F0F9FAC9B20A1C3032ED
:10012000637AD2B2092903D91A1C0A3A8918CAB2C9
:10013000139B301C013B13931A70616800F090FA16
:10014000061C002EE5DC637B002B22D06368082BA5
:1001500010D006DC022B12D1139B6222013B1393B9
:1001600011E00A2B15D0102B09D1139B7822013BEB
:10017000139308E0139B6F22013B139303E0139B3F
:100180003F22013B13931A70139B3022013B1393C0
:100190001A70002D04DA139B2D22013B139306E005
:1001A000E37A002B04D0139B2B22013B13931A708C
:1001B0001399201CFFF76BFF201C14B070BD0000CA
:1001C00038B5244B1B78002B01D1FFF731FF224BB0
:1001D00080229203DA67214B8022D96F52020A43B0
:1001E000DA67DA6F802040010243DA671C4A07258C
:1001F0001168A9431160146801210C431460194A65
:100200001468AC43146014680C431460DA6F164C25
:100210001043D8678323E360144B15481960154BCE
:1002200096219B6F0903594300F0CCF9030A6360E0
:10023000C0B203232060E360A56063696269602344
:100240001340602BFAD16369DA0702D5064B1B68AD
:10025000F9E738BD2400001004E100E00480044008
:10026000A4400440A840044000800040988004401E
:10027000006CDC02008004400F4BF0B59C680F4B13
:10028000E4431A682402240A1D1C0D49944207D233
:100290000E684F68074B064A92197B410A604B6013
:1002A0000F6849682C603C4304604160F0BDC04663
:1002B000000000010000000010E000E0200000103D
:1002C00018000010C046C04637B5302400256846E7
:1002D000FFF7D2FF009A019BA4185D416846FFF723
:1002E000CBFF019B009A9D42F8DC01D19442F5D8E6
:1002F00037BD0000064B10221968002802D0914338
:10030000196003E00A431A60024B18607047C04648
:100310000080005040000050064B20221968002841
:1003200002D09143196003E00A431A60024B18603F
:100330007047C046008000508000005008B5002083
:10034000FFF7EAFFFFF7C0FF0020FFF7D3FFFFF73B
:10035000BBFF08BD08B50020FFF7CCFFFFF7B4FFD7
:100360000020FFF7D9FFFFF7AFFF0120FFF7C2FF23
:10037000FFF7AAFF0120FFF7CFFFFFF7A5FF08BD9A
:10038000F8B5114D8027EB6F7F023B43EB670F4BB6
:1003900007261A680E4CB2431A60236810221343D2
:1003A00023600120FFF7A6FFEB6F01201F43094BDD
:1003B000EF671A68B2431A60236820221343236050
:1003C000FFF7AAFFF8BDC046048004403040044057
:1003D000008000503440044010B5041C0020FFF79A
:1003E00089FFFFF771FF201CFFF796FF0120FFF741
:1003F00081FFFFF769FF10BD38B5051C0824E80927
:10040000013C6D00FFF7E8FFEDB2002CF7D138BDDD
:1004100010B50020FFF76EFFFFF756FF0120FFF732
:100420007BFF0120FFF766FFFFF74EFF034B1C68C1
:10043000FFF74AFFA406E00F10BDC046FC3F005086
:1004400008B5FFF7E5FF01235840C0B208BD70B5FD
:10045000041C64000D1C161CFFF770FFE0B2FFF7D0
:10046000CBFF2C1C631BB34206DAFFF7E9FF2078B1
:10047000FFF7C2FF0134F5E7FFF7E2FFFFF76AFF7E
:1004800070BD0000F0B585B0FFF79AFE2F4D304BE0
:10049000281C2B612F49FFF7FAFD2F4B1B78002BEF
:1004A00001D1FFF7C5FD2D4B2D4A00271F605A6073
:1004B00001229F601A60FFF763FF03AC294BFF2600
:1004C0002720211C02221E7027706670FFF7BFFFD5
:1004D000254B27201E70211C0623022223706670E4
:1004E000FFF7B5FF012301930923211C01222720D7
:1004F0002370FFF7ACFFFFF721FF4F20FFF77CFFD2
:10050000FFF79EFF082700267600F6B2FFF780FF70
:10051000002803D1013F002FF6D102E001231E4342
:10052000F8E7FFF717FF019A9642DDD030232B72D0
:1005300008232B60311C0223281C6B60FFF7D6FDBB
:100540000A49FFF7A4FD0196CEE7C046000000105F
:1005500021000000240700002400001010E000E04B
:10056000FFFFFF00260000102500001040070000DC
:1005700010B50F4B0F4A191D043B934203D00022C4
:100580001A600B1CF6E70C4A0C490023891A8908EB
:100590000131890004338B4207D0094CD0181C1953
:1005A000043C246804380460F4E7FFF76BFFFEE7BF
:1005B0001C000010280000100000001014000010A3
:1005C00044070000002934D00123002210B48842DF
:1005D0002CD301242407A14204D2814202D2090172
:1005E0001B01F8E7E400A14204D2814202D2490093
:1005F0005B00F8E7884201D3401A1A434C08A04236
:1006000002D3001B5C0822438C08A04202D3001BCB
:100610009C082243CC08A04202D3001BDC082243E2
:10062000002803D01B0901D00909E3E7101C10BC06
:100630007047002801D00020C04307B4024802A13F
:100640004018029003BDC046D90000000029F0D038
:1006500003B5FFF7B9FF0EBC4243891A1847C046DD
:10066000002941D010B4041C4C40A44601230022B0
:10067000002900D54942002800D5404288422CD3A9
:1006800001242407A14204D2814202D209011B01A4
:10069000F8E7E400A14204D2814202D249005B00A3
:1006A000F8E7884201D3401A1A434C08A04202D30B
:1006B000001B5C0822438C08A04202D3001B9C084C
:1006C0002243CC08A04202D3001BDC0822430028AE
:1006D00003D01B0901D00909E3E7101C6446002C74
:1006E00000D5404210BC7047002806D003DB002034
:1006F000C043400801E08020000607B4024802A180
:100700004018029003BDC046190000000029EBD03C
:1007100003B5FFF7A7FF0EBC4243891A1847C0462E
:100720007047C0466D63703233303137206C6F676D
:10073000206C6576656C206F6E20706F727420413E
:040740000A000000AB
:10074400000000000A000000204101000000000039
:0407540000000000A1
:040000030000057183
:00000001FF
