:1000000000040010DD0200000000000000000000FD
:1000100000000000000000000000000000000000E0
:10002000031C181C04E0C046C046C046C046C0467B
:100030000138FDDC7047C046C046C046C046C046D9
:10004000144A8020D36F4002034330B5D367124B6C
:1000500007211C6820258C431C60104B1C682C4316
:100060001C60D46F0443D4670D4C25688D43256014
:100070001D68802464002C431C60D46F2043D0672B
:10008000084A1068884310601968802292000A4369
:100090001A6030BD04800440A0400440008001503C
:1000A0001440044038400440114A38B58020D36FD2
:1000B00040020343D3670F4B07211C6881258C4303
:1000C0002C431C600C4B08251C682C431C60D46F0F
:1000D0002043D067094A10688843011C80200143EF
:1000E00011601A6810210A431A60FFF7A9FF38BD92
:1000F000048004409040044000800150944004403B
:10010000104A70B5D36F802464022343D3670E4B2B
:1001100007201D68812185430D431D600B4B02267E
:100120001D6835431D60D56F2C43D467084A146899
:100130008443214311601A6804210A431A60FFF7BF
:10014000B3FF70BD048004407C4004400080015037
:100150008040044038B5164B8020DA6F40020243DD
:10016000DA67144A0721146840258C431460124A48
:1001700014682C431460DC6F0443DC670F4C256863
:100180008D432560146880252C431460DA6F10437A
:10019000D8670B4B1A688A4381210A431A60094BBE
:1001A00001211A680A431A60FFF7AAFF38BDC0464A
:1001B000048004404C400440008000505040044003
:1001C0007840044000800150314BF7B5DA6F802150
:1001D00049020A43051C2F48DA6704680722944342
:1001E00004602D4C102620686D0830432060D86FC5
:1001F0000143D967294B196891431960236820226C
:1002000013432360FFF7A6FF0195236810218B435A
:1002100023602368202293432360214901235B420A
:100220000B60204A204913600B60204A204913606C
:10023000204F0B60204A2149214E224D1360019826
:100240000B603B6033602B60FFF7EAFE23681022EF
:1002500013431D4A236000231360226820210A43B0
:1002600022601A4A0F4913600D4A019813600E4A22
:100270000B6013600D490E4A0B6013600E490F4A64
:100280000B6013603B6033602B60FFF7C9FEBCE777
:10029000048004403040044000800050344004405A
:1002A00000010050000200500400015008000150FD
:1002B000100001508000015020000150400001500A
:1002C0000004015000080150400000508000005020
:1002D00008B50148FFF778FF60E3160010B50F4B33
:1002E0000F4A191D043B934203D000221A600B1CD5
:1002F000F6E70C4A0C490023891A89080131890064
:1003000004338B4207D0094CD0181C19043C2468D4
:1003100004380460F4E7FFF7DBFFFEE70400001099
:10032000000000100000001000000010300300006A
:04000003000002DD1A
:00000001FF
