:100000001004001051030000000000000000000078
:1000100000000000000000000000000000000000E0
:100020000F4BF0B59C680F4BE4431A682402240A76
:100030001D1C0D49944207D20E684F68074B064AB3
:1000400092197B410A604B600F6849682C603C4301
:1000500004604160F0BDC0460000000100000000E7
:1000600010E000E00800001000000010C046C0468C
:1000700037B5041C0D1C6846FFF7D2FF009A019BA0
:10008000A4185D416846FFF7CBFF019B009A9D4293
:10009000F8DC01D19442F5D837BD0000134B202283
:1000A0001968002804D09143196001235B4204E0E1
:1000B0000A431A600E4B1860031C0E4A13600E4A66
:1000C000434213600D4A13600D4A136001235840E8
:1000D0000C4B404218600C4B18600C4B18600C4BDA
:1000E00018600C4B18600C4B186070470080005073
:1000F0008000005000010050000200500400015038
:100100000800015010000150200001504000015033
:10011000800001500004015000080150204A802056
:10012000D36F4002034370B5D3671E4B07211C6891
:1001300081258C432C431C601B4B08251C688026A2
:100140002C431C60D46F0443D467184C25688D433E
:10015000354325601C6810252C431C60D46F044374
:10016000D467134C25688D4325601C6820252C43DB
:100170001C60D46F0443D4670E4C25688D43256002
:100180001D6874002C431C60D46F2043D0670A4A5A
:100190001068884310601968B2000A431A6070BD85
:1001A000048004409040044000800150944004408A
:1001B000A04004401440044038400440104A70B548
:1001C000D36F802464022343D3670E4B07201D683E
:1001D000812185430D431D600B4B02261D6835436D
:1001E0001D60D56F2C43D467084A146884432143AB
:1001F00011601A6804210A431A60FFF78FFF70BD6F
:10020000048004407C400440008001508040044051
:1002100038B5164B8020DA6F40020243DA67144A81
:100220000721146840258C431460124A14682C433B
:100230001460DC6F0443DC670F4C25688D43256038
:10024000146880252C431460DA6F1043D8670B4B79
:100250001A688A4381210A431A60094B01211A68EE
:100260000A431A60FFF7AAFF38BDC0460480044065
:100270004C4004400080005050400440784004400E
:1002800000800150F7B5244B244A00251D605A60B8
:1002900001229D601A60224B0F1CDA6F80214902F7
:1002A000061C0A431F48DA67046807229443046067
:1002B0001D4C1022206810432060D86F0143D9677D
:1002C0001A4B072019680A1C82431A6023682022EF
:1002D00013432360FFF79CFF2B1CFA0F92197B41FD
:1002E000D90755080D435E1023681027BB432360D0
:1002F0000120FFF7D3FE311C281CFFF7B9FE23684D
:1003000000201F430A4B27601860FFF7C7FE281C18
:10031000311CFFF7ADFEE7E710E000E0FFFFFF0054
:1003200004800440304004400080005034400440C9
:10033000400000500000000008B504490248FFF7E3
:10034000A1FFC046C046C046C0C62D000000000048
:1003500010B50F4B0F4A191D043B934203D00022E6
:100360001A600B1CF6E70C4A0C490023891A89080D
:100370000131890004338B4207D0094CD0181C1975
:10038000043C246804380460F4E7FFF7D5FFFEE777
:10039000040000100C00001000000010000000100D
:0403A000A4030000B2
:0400000300000351A5
:00000001FF
