:1000000018040010C1010000000000000000000002
:1000100000000000000000000000000000000000E0
:10002000024B5A695106FBD51860704700800040AA
:1000300038B5051C0C1C002C06DD2B69287A002B1A
:1000400000D09847013CF6E738BD70B5837A041CB0
:100050000D1C002B0BD001682B1C18785A1B002894
:1000600001D00133F9E7891A201CFFF7E1FF2E1CAC
:100070003078002805D02369002B00D0984701363E
:10008000F6E7A37A002B0BD121682B1C18785A1B9A
:10009000002801D00133F9E7891A201CFFF7C8FFB7
:1000A0000023201C236070BD38B58022204B9203B2
:1000B000DA67204B8022D96F52020A43DA67DA6F7F
:1000C000802040010243DA671B4A07251168A943D3
:1000D0001160146801210C431460184A1468AC4381
:1000E000146014680C431460DA6F154C1043D86721
:1000F0008323E360134B14481960144B96219B6FC4
:100100000903594300F086F8030A6360C0B2032371
:100110002060E360A5606369626960231340602B1F
:10012000FAD16369DA0702D5054B1B68F9E738BDD8
:1001300004E100E004800440A4400440A8400440DE
:100140000080004098800440001BB70000800440FD
:1001500070B5FFF7A9FF114D114B281C2B611149F8
:10016000FFF773FF104E0024311CFFF76EFF0F499D
:10017000FFF76BFF0E4B0F4A1C605A6001229C6018
:10018000281C1A600C49FFF760FF311CFFF75DFF68
:100190000A49FFF75AFF201C70BDC046000000103E
:1001A00021000000B4020000BF020000C1020000F4
:1001B00010E000E0FFFFFF00CD020000DA020000C7
:1001C00010B50F4B0F4A191D043B934203D0002278
:1001D0001A600B1CF6E70C4A0C490023891A89089F
:1001E0000131890004338B4207D0094CD0181C1907
:1001F000043C246804380460F4E7FFF7A9FFFEE735
:10020000180000101400001000000010140000106E
:10021000F0020000002934D00123002210B48842EB
:100220002CD301242407A14204D2814202D2090125
:100230001B01F8E7E400A14204D2814202D2490046
:100240005B00F8E7884201D3401A1A434C08A042E9
:1002500002D3001B5C0822438C08A04202D3001B7F
:100260009C082243CC08A04202D3001BDC08224396
:10027000002803D01B0901D00909E3E7101C10BCBA
:100280007047002801D00020C04307B4024802A1F3
:100290004018029003BDC046190000000029F0D0AC
:1002A00003B5FFF7B9FF0EBC4243891A1847C04691
:1002B0007047C0460A6D61696E2E6370703A3720D0
:1002C0000048656C6C6F20776F726C64000A6D611A
:1002D000696E2E6370703A39200074696D696E67BB
:1002E00020696E697469616C697A65640000000058
:1002F000000000000A000000204101000000000092
:0403000000000000F9
:04000003000001C137
:00000001FF
