:10000000280400109105000000000000000000001E
:1000100000000000000000000000000000000000E0
:10002000024B5A695106FBD51860704700800040AA
:100030000E4B01221A700E4B8E229200985880218E
:100040000843985023209860985888439850D8685F
:100050000121074A0842FAD003231367536F8B43E9
:100060005367536F194351677047C046240000100F
:100070000080044038B5051C0C1C002C06DD2B69E3
:10008000287A002B00D09847013CF6E738BD70B5C0
:10009000837A041C0D1C002B0BD001682B1C1878D4
:1000A0005A1B002801D00133F9E7891A201CFFF7F9
:1000B000E1FF2E1C3078002805D02369002B00D0EA
:1000C00098470136F6E7A37A002B0BD121682B1C49
:1000D00018785A1B002801D00133F9E7891A201C2F
:1000E000FFF7C8FF0023201C236070BD70B594B0DB
:1000F0006B4649330022041C0D1C1A7013934E42A8
:1001000091421EDB0E1E1CD112AB302213931A70CB
:1001100017E0301C616800F009FBC9B20A1C3032DC
:10012000637AD2B2092903D91A1C0A3A8918CAB2C9
:10013000139B301C013B13931A70616800F0A0FA06
:10014000061C002EE5DC637B002B22D06368082BA5
:1001500010D006DC022B12D1139B6222013B1393B9
:1001600011E00A2B15D0102B09D1139B7822013BEB
:10017000139308E0139B6F22013B139303E0139B3F
:100180003F22013B13931A70139B3022013B1393C0
:100190001A70002D04DA139B2D22013B139306E005
:1001A000E37A002B04D0139B2B22013B13931A708C
:1001B0001399201CFFF76BFF201C14B070BD0000CA
:1001C00038B5244B1B78002B01D1FFF731FF224BB0
:1001D00080229203DA67214B8022D96F52020A43B0
:1001E000DA67DA6F802040010243DA671C4A07258C
:1001F0001168A9431160146801210C431460194A65
:100200001468AC43146014680C431460DA6F164C25
:100210001043D8678323E360144B15481960154BCE
:1002200096219B6F0903594300F0DCF9030A6360D0
:10023000C0B203232060E360A56063696269602344
:100240001340602BFAD16369DA0702D5064B1B68AD
:10025000F9E738BD2400001004E100E00480044008
:10026000A4400440A840044000800040988004401E
:10027000006CDC02008004400F4BF0B59C680F4B13
:10028000E4431A682402240A1D1C0D49944207D233
:100290000E684F68074B064A92197B410A604B6013
:1002A0000F6849682C603C4304604160F0BDC04663
:1002B000000000010000000010E000E0200000103D
:1002C00018000010C046C04637B5041C0D1C684617
:1002D000FFF7D2FF009A019BA4185D416846FFF723
:1002E000CBFF019B009A9D42F8DC01D19442F5D8E6
:1002F00037BD000000000000F0B55B4C20272368EC
:1003000000223B432360594B85B01A60051C5349BA
:100310005148FFF7D9FF524852492368544EBB4316
:100320002360FFF7D1FF33683B4200D090E002A882
:10033000FFF7A2FF02980399009001913368990694
:1003400010D402A8FFF798FF029A039B0098019926
:10035000121A8B41002B00DD7AE0EFD1454B9A4217
:10036000ECD975E0002408272B5902A85A00FF2376
:1003700013402B51FFF780FF0298039900900191E1
:10038000336802A899060ED5FFF776FF029A039B01
:1003900000980199121A8B41002B59DCF0D1354B92
:1003A0009A42EDD954E0FFF767FF029A039B00924F
:1003B0000193336802A899060ED4FFF75DFF029AF5
:1003C000039B00980199121A8B41002B40DCF0D15D
:1003D000284B9A42EDD93BE0FFF74EFF029A039B70
:1003E00000920193336802A8990615D5FFF744FFE0
:1003F000029A039B00980199121A8B41002B03DC8F
:10040000F0D11C4B9A42EDD91B491C48FFF73FFE27
:100410001B49FFF73CFE1BE0FFF72EFF029A039BF0
:1004200000980199121A8B41002B04DC07D1962306
:10043000DB009A4203D9295901230B432B51013F79
:10044000002F91D10434142C00D08CE7012000E05F
:10045000002005B0F0BDC046D8270900000000000C
:10046000B80500000000000000800150800001502D
:10047000FC3F0150C05D0000440700000000001078
:1004800084070000C046C046F0B589B0FFF798FE6B
:100490002F4C304B201C23612F49FFF7F8FD2F4BC9
:1004A0001B78002B01D1FFF7C3FD2D4B2D490022F6
:1004B0001A6059609A6001221A6024492248FFF7A5
:1004C00003FF03A8FFF718FF002832D0059FFA2585
:1004D000AD00039A6F436A43069B2349FF18049BB0
:1004E000201CD31801930A23636002232360FFF7C3
:1004F000CEFD291C061C381C00F0C2F8011C301C63
:10050000FFF7F4FD1949FFF7C2FD1949FFF7BFFDD9
:100510001849FFF7BCFD291C061C019800F0B0F833
:10052000011C301CFFF7E2FD1349FFF7B0FD134932
:1005300007E01349201CFFF7AAFD1249FFF7A7FDAA
:100540001149FFF7A4FDB8E7186CDC0200000000B9
:1005500000000010210000005207000024000010DD
:1005600010E000E0FFFFFF007E07000081070000B1
:100570008307000086070000890700007C07000051
:100580008B070000840700009A070000C046C046A1
:1005900010B50F4B0F4A191D043B934203D00022A4
:1005A0001A600B1CF6E70C4A0C490023891A8908CB
:1005B0000131890004338B4207D0094CD0181C1933
:1005C000043C246804380460F4E7FFF75DFFFEE7AD
:1005D0001C00001028000010000000101400001083
:1005E000AC070000002934D00123002210B4884257
:1005F0002CD301242407A14204D2814202D2090152
:100600001B01F8E7E400A14204D2814202D2490072
:100610005B00F8E7884201D3401A1A434C08A04215
:1006200002D3001B5C0822438C08A04202D3001BAB
:100630009C082243CC08A04202D3001BDC082243C2
:10064000002803D01B0901D00909E3E7101C10BCE6
:100650007047002801D00020C04307B4024802A11F
:100660004018029003BDC046D90000000029F0D018
:1006700003B5FFF7B9FF0EBC4243891A1847C046BD
:10068000002941D010B4041C4C40A4460123002290
:10069000002900D54942002800D5404288422CD389
:1006A00001242407A14204D2814202D209011B0184
:1006B000F8E7E400A14204D2814202D249005B0083
:1006C000F8E7884201D3401A1A434C08A04202D3EB
:1006D000001B5C0822438C08A04202D3001B9C082C
:1006E0002243CC08A04202D3001BDC08224300288E
:1006F00003D01B0901D00909E3E7101C6446002C54
:1007000000D5404210BC7047002806D003DB002013
:10071000C043400801E08020000607B4024802A15F
:100720004018029003BDC046190000000029EBD01C
:1007300003B5FFF7A7FF0EBC4243891A1847C0460E
:100740007047C0460A6D61696E2E6370703A373427
:100750002000526561642061204448543131207486
:10076000656D706572617475726520262068756D9F
:1007700069646974792073656E736F720A00743DE1
:10078000004300202000683D0025000A6D61696E6D
:100790002E6370703A313434200072656164696E82
:0C07A00067206661696C65640000000061
:1007AC00000000000A0000002041010000000000D1
:0407BC000000000039
:040000030000059163
:00000001FF
