:10000000180400100D0200000000000000000000B5
:1000100000000000000000000000000000000000E0
:10002000024B5A695106FBD51860704700800040AA
:100030000E4B01221A700E4B8E229200985880218E
:100040000843985023209860985888439850D8685F
:100050000121074A0842FAD003231367536F8B43E9
:100060005367536F194351677047C046140000101F
:100070000080044038B5051C0C1C002C06DD2B69E3
:10008000287A002B00D09847013CF6E738BD70B5C0
:10009000837A041C0D1C002B0BD001682B1C1878D4
:1000A0005A1B002801D00133F9E7891A201CFFF7F9
:1000B000E1FF2E1C3078002805D02369002B00D0EA
:1000C00098470136F6E7A37A002B0BD121682B1C49
:1000D00018785A1B002801D00133F9E7891A201C2F
:1000E000FFF7C8FF0023201C236070BD38B5244BE8
:1000F0001B78002B01D1FFF79BFF224B802292033C
:10010000DA67214B8022D96F52020A43DA67DA6F2D
:10011000802040010243DA671C4A07251168A94381
:100120001160146801210C431460194A1468AC432F
:10013000146014680C431460DA6F164C1043D867CF
:100140008323E360144B15481960154B96219B6F70
:100150000903594300F084F8030A6360C0B2032323
:100160002060E360A5606369626960231340602BCF
:10017000FAD16369DA0702D5064B1B68F9E738BD87
:100180001400001004E100E004800440A440044096
:10019000A84004400080004098800440006CDC02CD
:1001A0000080044038B5FFF7A1FF104B104C1149F7
:1001B0002361201CFFF76BFF0F4D291CFFF767FF22
:1001C0000E49FFF764FF0E4B1B78002B01D1FFF7A0
:1001D0002FFF201C0B49FFF75AFF291CFFF757FF81
:1001E0000949FFF754FF002038BDC0462100000038
:1001F00000000010000300000B0300000D030000CE
:1002000014000010190300002603000010B50F4B66
:100210000F4A191D043B934203D000221A600B1CA5
:10022000F6E70C4A0C490023891A89080131890034
:1002300004338B4207D0094CD0181C19043C2468A5
:1002400004380460F4E7FFF7ADFFFEE71800001084
:100250001800001000000010140000103C03000003
:10026000002934D00123002210B488422CD3012469
:100270002407A14204D2814202D209011B01F8E7FE
:10028000E400A14204D2814202D249005B00F8E7B7
:10029000884201D3401A1A434C08A04202D3001BE3
:1002A0005C0822438C08A04202D3001B9C08224316
:1002B000CC08A04202D3001BDC082243002803D054
:1002C0001B0901D00909E3E7101C10BC7047002886
:1002D00001D00020C04307B4024802A14018029098
:1002E00003BDC046190000000029F0D003B5FFF798
:1002F000B9FF0EBC4243891A1847C0467047C04632
:100300000A6D61696E2E6370703A37200048656C23
:100310006C6F20776F726C64000A6D61696E2E637A
:1003200070703A39200074696D696E6720696E6972
:0C0330007469616C697A6564000000006B
:10033C00000000000A000000204101000000000045
:04034C0000000000AD
:040000030000020DEA
:00000001FF
