:100000003004001041040000000000000000000067
:1000100000000000000000000000000000000000E0
:1000200070470000000000000F4BF0B59C680F4BBC
:10003000E4431A682402240A1D1C0D49944207D285
:100040000E684F68074B064A92197B410A604B6065
:100050000F6849682C603C4304604160F0BDC046B5
:10006000000000010000000010E000E0200000108F
:1000700018000010C046C046F0B587B0039002914A
:1000800004A8FFF7D1FF049A059B029E01921D1C54
:100090009E4203DC27D1039F974224D9134C20684A
:1000A0000028EDD1124F01203E6820601149064220
:1000B00004D1114E49600E608960386048688842FA
:1000C0000DD04769AF4204DB07D10769019EB742F3
:1000D00003D201680968884701E04068EFE72368B8
:1000E000013B2360CCE707B0F0BDC04628000010FC
:1000F0002C00001000000010A004000037B50D1CFB
:10010000041C6846FFF790FF0098019900196941A7
:10011000FFF7B2FF37BD00000F4B1A78002A1AD143
:1001200001221A700D4B8E229200985880210843AC
:10013000985023209860985888439850D868012197
:10014000064A0842FAD003231367536F8B43536761
:10015000536F19435167704724000010008004401A
:100160000C4A43421360012250400B4A4042106047
:100170000A4A13600A4A10600A4A13600A4A106069
:100180000A4A13600A4A10600A4A13600A4B186050
:100190007047C046000100500002005004000150AA
:1001A0000800015010000150200001504000015093
:1001B00080000150000401500008015008B5084BB0
:1001C00020221968002802D191430A1C03E00A4347
:1001D0001A60044B00221A60FFF7C2FF08BDC04638
:1001E0000080005080000050144A8020D36F4002ED
:1001F000034330B5D367124B07211C6820258C437D
:100200001C60104B1C682C431C60D46F0443D467E3
:100210000D4C25688D4325601D68802464002C43A7
:100220001C60D46F2043D067084A10688843106070
:100230001968802292000A431A6030BD048004408D
:10024000A040044000800150144004403840044065
:10025000114A38B58020D36F40020343D3670F4B58
:1002600007211C6881258C432C431C600C4B0825FE
:100270001C682C431C60D46F2043D067094A106867
:100280008843011C8020014311601A6810210A4331
:100290001A60FFF7A9FF38BD048004409040044075
:1002A0000080015094400440104A70B5D36F802400
:1002B00064022343D3670E4B07201D6881218543C9
:1002C0000D431D600B4B02261D6835431D60D56F25
:1002D0002C43D467084A14688443214311601A6888
:1002E00004210A431A60FFF7B3FF70BD0480044085
:1002F0007C400440008001508040044038B5164BDB
:100300008020DA6F40020243DA67144A072114683A
:1003100040258C431460124A14682C431460DC6F2F
:100320000443DC670F4C25688D43256014688025E5
:100330002C431460DA6F1043D8670B4B1A688A435A
:1003400081210A431A60094B01211A680A431A6085
:10035000FFF7AAFF38BDC046048004404C4004406B
:10036000008000505040044078400440008001501C
:10037000F7B5061C0F1CFFF7CFFE234B234A0025C1
:100380001D605A6001229D601A60214B8021DA6F46
:1003900049020A431F48DA6704680722944304604D
:1003A0001D4C1022206810432060D86F0143D9678C
:1003B0001A4B072019680A1C82431A6023682022FE
:1003C00013432360FFF79AFF2B1CFA0F92197B410E
:1003D000D90755080D435E1023681027BB432360DF
:1003E0000120FFF7EBFE311C281CFFF787FE236876
:1003F00000201F430A4B27601860FFF7DFFE281C10
:10040000311CFFF77BFEE7E710E000E0FFFFFF0095
:1004100004800440304004400080005034400440D8
:10042000400000500000000008B504490248FFF7F2
:100430009FFFC046C046C046001BB700000000003A
:1004400010B50F4B0F4A191D043B934203D00022F5
:100450001A600B1CF6E70C4A0C490023891A89081C
:100460000131890004338B4207D0094CD0181C1984
:10047000043C246804380460F4E7FFF7D5FFFEE786
:1004800004000010300000100000001000000010F8
:10049000A8040000000000000000000000000000B0
:0804A000210000000000000033
:0400000300000441B4
:00000001FF
