:100000003004001061020000000000000000000049
:1000100000000000000000000000000000000000E0
:1000200038B5051C0C1C002C06DD2B69287A002B2A
:1000300000D09847013CF6E738BD70B5837A041CC0
:100040000D1C002B0BD001682B1C18785A1B0028A4
:1000500001D00133F9E7891A201CFFF7E1FF2E1CBC
:100060003078002805D02369002B00D0984701364E
:10007000F6E7A37A002B0BD121682B1C18785A1BAA
:10008000002801D00133F9E7891A201CFFF7C8FFC7
:100090000023201C236070BD0F4BF0B59C680F4BF4
:1000A000E4431A682402240A1D1C0D49944207D215
:1000B0000E684F68074B064A92197B410A604B60F5
:1000C0000F6849682C603C4304604160F0BDC04645
:1000D000000000010000000010E000E02800001017
:1000E00020000010C046C0460D4B37B50B4D0A4CE2
:1000F0004942196002684368A4185D410460456084
:100100006846FFF7C9FF019B009A9D42F8DC01D1C8
:100110009442F5D837BDC0467002000000000000D0
:1001200000020150C046C04673B5061C6846FFF782
:10013000B3FF68460021FFF7D7FF08250124311CD3
:1001400021406846013DFFF7CFFFE640002DF5D185
:100150006846211CFFF7C8FF6846211CFFF7C4FF53
:1001600073BD00000F4B1A78002A1AD101221A70B1
:100170000D4B8E22920098588021084398502320DE
:100180009860985888439850D8680121064A0842D8
:10019000FAD003231367536F8B435367536F19438D
:1001A00051677047180000100080044008B5FFF741
:1001B000D9FF044B044900221A6059609A60012259
:1001C0001A6008BD10E000E0FFFFFF0038B5194BD2
:1001D0008022D96F52020A43DA67174B07211A6847
:1001E0008A431A60154B80211A680A431A60144B1F
:1001F000012252421A60FFF7D9FF124B124C1349E9
:100200002361201CFFF719FF114D291CFFF715FF73
:100210001049FFF712FFFFF7C9FF201C0E49FFF737
:100220000CFF291CFFF709FF0C49FFF706FF002010
:1002300038BDC04604800440A840044000800150FE
:10024000000201502901000000000010B40200006B
:10025000BF020000C1020000CD020000DA0200006F
:1002600010B50F4B0F4A191D043B934203D00022D7
:100270001A600B1CF6E70C4A0C490023891A8908FE
:100280000131890004338B4207D0094CD0181C1966
:10029000043C246804380460F4E7FFF797FFFEE7A6
:1002A0001C0000102C0000100000001014000010B2
:1002B000F00200000A6D61696E2E6370703A37209B
:1002C0000048656C6C6F20776F726C64000A6D611A
:1002D000696E2E6370703A39200074696D696E67BB
:1002E00020696E697469616C697A65640000000058
:1002F000000000000A000000204101000000000092
:0403000000000000F9
:040000030000026196
:00000001FF
