:1000000010040010B1030000000000000000000018
:1000100000000000000000000000000000000000E0
:100020000F4BF0B59C680F4BE4431A682402240A76
:100030001D1C0D49944207D20E684F68074B064AB3
:1000400092197B410A604B600F6849682C603C4301
:1000500004604160F0BDC0460000000100000000E7
:1000600010E000E00800001000000010C046C0468C
:1000700037B5041C0D1C6846FFF7D2FF009A019BA0
:10008000A4185D416846FFF7CBFF019B009A9D4293
:10009000F8DC01D19442F5D837BD00000123011CE2
:1000A00019400C4A49421160410819400A4A494224
:1000B000116081081940094A49421160C10819407C
:1000C000074A4942000911600340064A5B42136037
:1000D0007047C04620000150400001508000015090
:1000E000000401500008015008B5011C012319400B
:1000F0000D4A49421160410819400C4A49421160B9
:10010000810819400A4A49421160C1081940094A48
:100110004942116002091340074A5B4213604009DB
:10012000FFF7BCFF08BDC0460001005000020050B0
:10013000040001500800015010000150012210B5C8
:1001400002400F4B1021002A03D01A688A431A601C
:1001500004E01C68214319600A490A604008012232
:1001600002402021002A02D01A688A4303E01C685A
:1001700021431960044B1A604008FFF7B5FF10BD1A
:100180000080005040000050800000501B4A80203A
:10019000D36F4002034330B5D367194B07211C6866
:1001A00080258C432C431C60164B10251C682C4367
:1001B0001C60D46F0443D467134C25688D432560BD
:1001C0001C6820252C431C60D46F0443D4670F4C5B
:1001D00025688D4325601D68802464002C431C60C5
:1001E000D46F2043D0670A4A1068884310601968AA
:1001F000802292000A431A6030BDC0460480044049
:100200009440044000800150A04004401440044049
:1002100038400440164A70B5D36F802464022343EB
:10022000D367144B07201D68812185430D431D6052
:10023000114B02261D6835431D60D56F2543D567D8
:100240000E4D2E6886430E432E601D6804263543EE
:100250001D60D56F2C43D467094A14688443214339
:1002600011601A6808210A431A60FFF78FFF70BDFA
:10027000048004407C4004400080015080400440E1
:100280009040044038B5164B8020DA6F400202439C
:10029000DA67144A0721146840258C431460124A17
:1002A00014682C431460DC6F0443DC670F4C256832
:1002B0008D432560146880252C431460DA6F104349
:1002C000D8670B4B1A688A4381210A431A60094B8D
:1002D00001211A680A431A60FFF79CFF38BDC04627
:1002E000048004404C4004400080005050400440D2
:1002F0007840044000800150F7B5214B214A002688
:100300001E605A6001229E601A601F4A041CD36F4F
:10031000802040020343D3671C4B0D1C1F6807213C
:100320008F431F601A4B10211F680F431F60D76F48
:100330003843D067174A07271068011CB94311607A
:100340001A6820210A431A60FFF79CFF0B2E09DC74
:100350000120B040FFF7F2FE201C291CFFF788FEA9
:100360000136F3E70A260120B040FFF7E7FE013E21
:10037000201C291CFFF77CFE002EF4D1E6E7C046C6
:1003800010E000E0FFFFFF00048004403040044024
:10039000008000503440044008B504490248FFF78B
:1003A000ABFFC046C046C046C027090000000000A1
:1003B00010B50F4B0F4A191D043B934203D0002286
:1003C0001A600B1CF6E70C4A0C490023891A8908AD
:1003D0000131890004338B4207D0094CD0181C1915
:1003E000043C246804380460F4E7FFF7D5FFFEE717
:1003F000040000100C0000100000001000000010AD
:0404000004040000F0
:04000003000003B145
:00000001FF
