:10000000280400109105000000000000000000001E
:1000100000000000000000000000000000000000E0
:10002000024B5A695106FBD51860704700800040AA
:100030000E4B01221A700E4B8E229200985880218E
:100040000843985023209860985888439850D8685F
:100050000121074A0842FAD003231367536F8B43E9
:100060005367536F194351677047C046240000100F
:100070000080044038B5051C0C1C002C06DD2B69E3
:10008000287A002B00D09847013CF6E738BD0000E5
:1000900038B5244B1B78002B01D1FFF7C9FF224B49
:1000A00080229203DA67214B8022D96F52020A43E1
:1000B000DA67DA6F802040010243DA671C4A0725BD
:1000C0001168A9431160146801210C431460194A96
:1000D0001468AC43146014680C431460DA6F164C57
:1000E0001043D8678323E360144B15481960154B00
:1000F00096219B6F0903594300F074FA030A636069
:10010000C0B203232060E360A56063696269602375
:100110001340602BFAD16369DA0702D5064B1B68DE
:10012000F9E738BD2400001004E100E00480044039
:10013000A4400440A840044000800040988004404F
:10014000006CDC020080044008B5074B1B78002BD4
:1001500001D1FFF76DFF054B054900221A60596078
:100160009A6001221A6008BD2400001010E000E02F
:10017000FFFFFF00000000000F4BF0B59C680F4B25
:10018000E4431A682402240A1D1C0D49944207D234
:100190000E684F68074B064A92197B410A604B6014
:1001A0000F6849682C603C4304604160F0BDC04664
:1001B000000000010000000010E000E0200000103E
:1001C00018000010C046C04637B5041C0D1C684618
:1001D000FFF7D2FF009A019BA4185D416846FFF724
:1001E000CBFF019B009A9D42F8DC01D19442F5D8E7
:1001F00037BD08B590200021FFF7E6FF08BD0000DD
:10020000064B10221968002802D09143196003E0C0
:100210000A431A60024B18607047C04600800050C5
:1002200040000050064B20221968002802D091435C
:10023000196003E00A431A60024B18607047C04619
:100240000080005080000050F8B5124DFFF77CFF91
:100250008027EB6F7F023B43EB670F4B07261A6843
:100260000E4CB2431A60236810221343236001200E
:10027000FFF7C6FFEB6F01201F43094BEF671A68BA
:10028000B2431A602368202213432360FFF7CAFF9A
:10029000F8BDC04604800440304004400080005057
:1002A0003440044008B50020FFF7BCFFFFF7A1FF72
:1002B0000020FFF7A5FFFFF79CFF08BD08B5002051
:1002C000FFF79EFFFFF795FF0020FFF7ABFFFFF75B
:1002D00090FF0120FFF794FFFFF78BFF0120FFF74E
:1002E000A1FFFFF786FF08BD10B5041C0020FFF733
:1002F00087FFFFF77EFF201CFFF794FF0120FFF729
:100300007FFFFFF776FF10BD38B5051C0824E8090C
:10031000013C6D00FFF7E8FFEDB2002CF7D138BDCE
:1003200010B50020FFF76CFFFFF763FF0120FFF718
:1003300079FF0120FFF764FFFFF75BFF034B1C68A9
:10034000FFF757FFA406E00F10BDC046FC3F00506A
:1003500008B5FFF7E5FF01235840C0B208BD70B5EE
:10036000041C64000D1C161CFFF79CFFE0B2FFF795
:10037000CBFF2C1C631BB34206DAFFF7E9FF2078A2
:10038000FFF7C2FF0134F5E7FFF7E2FFFFF796FF43
:1003900070BD000008B5074940230A78002801D045
:1003A000134301E09A43131C382001220B70FFF71E
:1003B000D6FF08BD2600001008B508490A780028B5
:1003C00003D080235B42134301E07F231340382096
:1003D00001220B70FFF7C3FF08BDC04626000010C6
:1003E00038B5051C08240020FFF7D4FFFFF701FFF4
:1003F000E809FFF7E1FF6D000120013CFFF7CAFFAC
:10040000EDB2FFF7F6FE002CEDD138BD38B5002077
:10041000FFF7C0FFFFF7EDFE0120FFF7CDFF012042
:10042000FFF7B8FFFFF7E5FEFFF73CFF7120FFF78E
:100430006BFFFFF78DFF082500246400E4B2FFF78F
:100440006FFF002808D1013D002DF6D1FFF736FFE0
:10045000FFF7CFFEE00938BD01231C43F3E770B579
:10046000041C00200D1C161C6400FFF7A5FFFFF7FD
:10047000C0FE0020FFF78EFFFFF7BBFEE0B2FFF7E4
:10048000AFFF2C1C631BB34206DAFFF7BFFF2078D7
:10049000FFF7A6FF0134F5E7FFF7B8FF0020FFF7ED
:1004A00079FFFFF7A6FE0020FFF786FFFFF7A1FE0A
:1004B0000120FFF76FFFFFF79CFE0120FFF77CFF95
:1004C000FFF797FE70BD000070B5FFF7E1FD2C4C03
:1004D0002C4B2D4D2361A37A002B0AD021680023D9
:1004E000EA5C002A01D00133FAE7C91A201CFFF7A1
:1004F000C1FD2E1C3078002805D02369002B00D0C8
:1005000098470136F6E7A37A002B09D12168EA5C07
:10051000002A01D00133FAE7C91A201CFFF7AAFD0F
:1005200000232360FFF710FEFFF70EFEFFF78CFE9F
:100530000120FFF72FFFFFF787FE0120FFF73CFFA9
:10054000124C10252378211C2B43012238202370C4
:10055000FFF785FF09490848FFF736FE2378211C7D
:10056000AB43382001222370FFF779FF034902488B
:10057000FFF72AFEE4E7C046808D5B000000000024
:10058000000000102100000084060000250000107B
:1005900010B50F4B0F4A191D043B934203D00022A4
:1005A0001A600B1CF6E70C4A0C490023891A8908CB
:1005B0000131890004338B4207D0094CD0181C1933
:1005C000043C246804380460F4E7FFF77DFFFEE78D
:1005D0001C00001028000010000000101400001083
:1005E000AC060000002934D00123002210B4884258
:1005F0002CD301242407A14204D2814202D2090152
:100600001B01F8E7E400A14204D2814202D2490072
:100610005B00F8E7884201D3401A1A434C08A04215
:1006200002D3001B5C0822438C08A04202D3001BAB
:100630009C082243CC08A04202D3001BDC082243C2
:10064000002803D01B0901D00909E3E7101C10BCE6
:100650007047002801D00020C04307B4024802A11F
:100660004018029003BDC046190000000029F0D0D8
:1006700003B5FFF7B9FF0EBC4243891A1847C046BD
:100680007047C046626C696E6B206F6E2061204CB3
:100690004544206F6E206120326E642D6C65766556
:0C06A0006C2050434638353734410000D0
:1006AC00000000000A0000002041010000000000D2
:0406BC00000000003A
:040000030000059163
:00000001FF
