:10000000600C00105D040000000000000000000013
:1000100000000000000000000000000000000000E0
:1000200038B50C1C151C00F0B9F9201C082100F093
:10003000E4F9002D08D0064800F0B0F9201C00F0CB
:10004000B7F9044800F0AAF9034800F0A7F938BD51
:10005000C0060000C30600008D07000038B5041C70
:10006000114800F09BF9201C00F0A2F9201C00F0C0
:1000700021FA051C0D4800F091F9281C082100F018
:10008000BCF9002D03D10A4800F088F908E00948BE
:1000900000F084F9084B1A68A018186000F088F97D
:1000A000064800F07BF938BDC6060000D306000004
:1000B000D7060000DF060000180000108D070000C2
:1000C00038B5534800F06AF9524853490022FFF707
:1000D000A7FF524852490022FFF7A2FF51490122CF
:1000E0005148FFF79DFF514C201C00F057F9504834
:1000F00050490022FFF794FF4F4850490022FFF774
:100100008FFF4F4901224F48FFF78AFF201C00F064
:1001100045F94D4800F042F94C484D490022FFF79F
:100120007FFF4C484C490022FFF77AFF4B490122E0
:100130004B48FFF775FF201C00F030F949484A4949
:100140000022FFF76DFF494849490022FFF768FF89
:10015000484901224848FFF763FF201C00F01EF9C0
:10016000464847490022FFF75BFF464846490022C0
:10017000FFF756FF454901224548FFF751FF201C74
:1001800000F00CF9434844490022FFF749FF434877
:1001900043490022FFF744FF424901224248FFF74A
:1001A0003FFF201C00F0FAF8404841490022FFF7C9
:1001B00037FF404840490022FFF732FF3F49012204
:1001C0003F48FFF72DFF201C00F0E8F83D483E496E
:1001D0000022FFF725FF3D483D490022FFF720FFA1
:1001E0003C4D0122291C3C48FFF71AFF201C00F05F
:1001F000D5F8281C0938FFF731FF0320FFF72EFF41
:100200000120FFF72BFF0120FFF728FF38BDC04674
:10021000EC060000F2060000000000000A070000E3
:100220000080000000800000220700008D07000011
:100230003A070000000000105207000000100010F4
:10024000001000006A070000820700008F0700000E
:1002500000000000A707000040090000400900005E
:10026000BF070000D707000040090000EF070000AB
:100270005809000018000000070800001F080000CF
:1002800000000010370800001800001018000000DF
:100290004F08000067080000180000107F080000E9
:1002A000600000104800000097080000AF08000040
:1002B00060000010C7080000600C0010000C000077
:1002C000DF080000F7080000600C00100F090000B4
:1002D00000100010A00300002709000008B500F07E
:1002E0009BF800F029F8064800F058F80A23054862
:1002F00003700023437000F051F8FFF7E1FEFEE7C2
:10030000000000101C00001080200349034A8B5895
:1003100083438B507047C04600000150FC3F0000F3
:1003200080200349034A8B5803438B507047C046D3
:1003300000000150FC3F000080228020044908B5E5
:1003400012028B5803438B50FFF7EAFF08BDC046EB
:1003500000000150F8B5061C00F072F8041C251CC2
:100360001A35FFF7D1FF271C281C00F06FF8EA3779
:10037000F30702D4FFF7C8FF01E0FFF7D1FF1A35FA
:10038000281C760800F062F8BD42F1D1FFF7C8FFE3
:10039000201C1F30FF3000F059F8F8BD10B5041CC8
:1003A0002078002803D0FFF7D5FF0134F8E710BD0F
:1003B00010B5041C002C04DA2D20FFF7CBFF64429B
:1003C000F8E7201C0A2100F089F8002801D0FFF787
:1003D000EFFF201C0A2100F067F93031C8B2FFF7A7
:1003E000B9FF10BD08B50F231840092801DC3030D3
:1003F00000E03730FFF7AEFF08BD70B5061C0C1CDF
:100400008D00043D002C05DD301CE840013CFFF769
:10041000E9FFF6E770BD00008021074A8900D36F2D
:100420000B43D3670022054BF639FF391A67D960B1
:100430009A6001325A6070470480044000400140D5
:10044000014B98687047C04600400140024B9B68D2
:100450009842FBD87047C046004001400022104936
:10046000104B10B55B1A9B0801339B00101D98427E
:1004700004D000248A181460021CF7E700220A49FD
:100480000A4B5B1A9B0801339B00101D984204D055
:10049000074CA4588C50021CF7E7FFF71FFFFEE73C
:1004A000180000106000001000000010180000107C
:1004B000400900000330C31706499B0F1B180A6848
:1004C0009B109B00D3180B60034900208B4200D87F
:1004D000101C7047140000100010001003460B435E
:1004E0007FD4002243088B4274D303098B425FD32D
:1004F000030A8B4244D3030B8B4228D3030C8B4259
:100500000DD3FF22090212BA030C8B4202D312123E
:10051000090265D0030B8B4219D300E0090AC30B13
:100520008B4201D3CB03C01A5241830B8B4201D3C0
:100530008B03C01A5241430B8B4201D34B03C01AA9
:100540005241030B8B4201D30B03C01A5241C30A21
:100550008B4201D3CB02C01A5241830A8B4201D392
:100560008B02C01A5241430A8B4201D34B02C01A7C
:100570005241030A8B4201D30B02C01A5241CDD221
:10058000C3098B4201D3CB01C01A524183098B426C
:1005900001D38B01C01A524143098B4201D34B0155
:1005A000C01A524103098B4201D30B01C01A5241B8
:1005B000C3088B4201D3CB00C01A524183088B423F
:1005C00001D38B00C01A524143088B4201D34B0028
:1005D000C01A5241411A00D201465241104670479A
:1005E0005DE0CA0F00D04942031000D3404253409F
:1005F00000229C4603098B422DD3030A8B4212D35F
:10060000FC22890112BA030A8B420CD38901921190
:100610008B4208D3890192118B4204D389013AD0CD
:10062000921100E08909C3098B4201D3CB01C01AA2
:10063000524183098B4201D38B01C01A52414309B5
:100640008B4201D34B01C01A524103098B4201D3A3
:100650000B01C01A5241C3088B4201D3CB00C01A10
:10066000524183088B4201D38B00C01A5241D9D228
:1006700043088B4201D34B00C01A5241411A00D2A9
:100680000146634652415B10104601D34042002BA5
:1006900000D54942704763465B1000D3404201B524
:1006A000002000F00BF802BD0029F8D003B5FFF7D9
:1006B00015FF0EBC4243891A1847C0467047C04612
:1006C000202800292000202020616C6C6F63617459
:1006D00065200020703D00206661696C6564002023
:1006E0004F4B20746F74616C203D2000436869702B
:1006F0000A00202020524F4D207374617274202014
:10070000202020202020203A2000202020524F4D61
:1007100020656E6420202020202020202020203AE8
:100720002000202020524F4D2073697A6520202020
:10073000202020202020203A200020202052414D3F
:100740002073746172742020202020202020203A01
:10075000200020202052414D20656E642020202062
:10076000202020202020203A200020202052414D0F
:100770002073697A65202020202020202020203A24
:1007800020004170706C69636174696F6E0A0020AB
:100790002020544558542073746172742020202006
:1007A000202020203A200020202054455854206545
:1007B0006E64202020202020202020203A200020AD
:1007C0002020544558542073697A65202020202029
:1007D000202020203A20002020204441544120287D
:1007E000524F4D2920737461727420203A200020EA
:1007F0002020444154412028524F4D2920656E64E9
:10080000202020203A20002020204441544120284C
:10081000524F4D292073697A652020203A2000200C
:10082000202044415441202852414D2920737461B5
:10083000727420203A200020202044415441202876
:1008400052414D2920656E64202020203A2000204E
:10085000202044415441202852414D292073697A77
:10086000652020203A20002020204253532073741A
:100870006172742020202020202020203A20002097
:10088000202042535320656E642020202020202009
:10089000202020203A20002020204253532073693A
:1008A0007A65202020202020202020203A200020AF
:1008B0002020535441434B20626F74746F6D20208D
:1008C000202020203A2000202020535441434B2058
:1008D000746F702020202020202020203A2000202B
:1008E0002020535441434B2073697A6520202020F7
:1008F000202020203A20002020204845415020621E
:100900006F74746F6D202020202020203A2000205A
:1009100020204845415020746F7020202020202046
:10092000202020203A2000202020484541502073DC
:10093000697A652020202020202020203A200000F5
:100940006D656D6F7279206D617020746573740AC6
:0809500000000000600C001023
:040000030000045D98
:00000001FF
