:10000000300400109101000000000000000000001A
:1000100000000000000000000000000000000000E0
:1000200070470000000000000F4BF0B59C680F4BBC
:10003000E4431A682402240A1D1C0D49944207D285
:100040000E684F68074B064A92197B410A604B6065
:100050000F6849682C603C4304604160F0BDC046B5
:10006000000000010000000010E000E0200000108F
:1000700018000010C046C046F0B587B0039002914A
:1000800004A8FFF7D1FF049A059B029E01921D1C54
:100090009E4203DC27D1039F974224D9134C20684A
:1000A0000028EDD1124F01203E6820601149064220
:1000B00004D1114E49600E608960386048688842FA
:1000C0000DD04769AF4204DB07D10769019EB742F3
:1000D00003D201680968884701E04068EFE72368B8
:1000E000013B2360CCE707B0F0BDC0462400001000
:1000F0002800001000000010F001000037B50D1CB2
:10010000041C6846FFF790FF0098019900196941A7
:10011000FFF7B2FF37BD0000174B1849002210B59A
:100120001A6059609A6001221A60154B8022D96FBB
:1001300052020A43DA67134B07211A688A431A608E
:10014000114B8022196892000A431A600F4C012358
:100150005B42236007490648FFF7D0FF0549044882
:1001600000232360FFF7CAFFF0E7C046C046C04641
:1001700060E316000000000010E000E0FFFFFF0059
:1001800004800440384004400080015000080150C1
:1001900010B50F4B0F4A191D043B934203D00022A8
:1001A0001A600B1CF6E70C4A0C490023891A8908CF
:1001B0000131890004338B4207D0094CD0181C1937
:1001C000043C246804380460F4E7FFF7A5FFFEE769
:1001D000040000102C0000100000001000000010AF
:1001E000F801000000000000000000000000000016
:0801F0002100000000000000E6
:040000030000019167
:00000001FF
