:1000000028040010D90300000000000000000000D8
:1000100000000000000000000000000000000000E0
:10002000024B5A695106FBD51860704700800040AA
:100030000E4B01221A700E4B8E229200985880218E
:100040000843985023209860985888439850D8685F
:100050000121074A0842FAD003231367536F8B43E9
:100060005367536F194351677047C046240000100F
:100070000080044038B5051C0C1C002C06DD2B69E3
:10008000287A002B00D09847013CF6E738BD0000E5
:1000900038B5244B1B78002B01D1FFF7C9FF224B49
:1000A00080229203DA67214B8022D96F52020A43E1
:1000B000DA67DA6F802040010243DA671C4A0725BD
:1000C0001168A9431160146801210C431460194A96
:1000D0001468AC43146014680C431460DA6F164C57
:1000E0001043D8678323E360144B15481960154B00
:1000F00096219B6F0903594300F098F9030A636046
:10010000C0B203232060E360A56063696269602375
:100110001340602BFAD16369DA0702D5064B1B68DE
:10012000F9E738BD2400001004E100E00480044039
:10013000A4400440A840044000800040988004404F
:10014000006CDC020080044008B5074B1B78002BD4
:1001500001D1FFF76DFF054B054900221A60596078
:100160009A6001221A6008BD2400001010E000E02F
:10017000FFFFFF00000000000F4BF0B59C680F4B25
:10018000E4431A682402240A1D1C0D49944207D234
:100190000E684F68074B064A92197B410A604B6014
:1001A0000F6849682C603C4304604160F0BDC04664
:1001B000000000010000000010E000E0200000103E
:1001C00018000010C046C04637B5041C0D1C684618
:1001D000FFF7D2FF009A019BA4185D416846FFF724
:1001E000CBFF019B009A9D42F8DC01D19442F5D8E7
:1001F00037BD000070B5FFF7A7FF184A8024D36F02
:1002000064022343D367164B07201D688121854371
:100210000D431D60134B04261D6835431D60124DB0
:1002200000262E60D56F2543D567104D2E68864376
:100230000E432E601D68012635431D60D56F2C438B
:10024000D4670B4A14688443214311601A68022161
:100250000A431A60074B72421A6070BD0480044062
:10026000804004400080015010000150784004405C
:100270007C4004400800015008B518200021FFF719
:10028000A3FF08BDF7B51B4B009100211960041CAA
:100290000192019A002A27D0002C02D0267801343E
:1002A00000E0261C144F00233B60FFF7E5FF082504
:1002B000124B72B2D2171A60FFF7DEFF01235B42C6
:1002C0003B60FFF7D9FF76000023013D3B60F6B2AB
:1002D0009D42EDD1009A9A4202D0157001320092EF
:1002E000019B013B0193D4E7024A01235B42136067
:1002F000F7BDC04608000150100001500400015035
:10030000F8B5041C0D1CFFF71FFFFFF773FF002655
:10031000104F072E0DDC0122131CB340381C0021A6
:100320003B70FFF7AFFF201C291CFFF74DFF013684
:10033000EEE706260122131CB340381C00213B7057
:10034000013EFFF79FFF201C291CFFF73DFF002EF9
:10035000F0D1DDE72500001070B5FFF799FE1A4CCB
:100360001A4B1B4D2361A37A002B0AD0216800236E
:10037000EA5C002A01D00133FAE7C91A201CFFF712
:1003800079FE2E1C3078002805D02369002B00D080
:1003900098470136F6E7A37A002B09D12168EA5C79
:1003A000002A01D00133FAE7C91A201CFFF762FEC8
:1003B0000449034800232360FFF7A2FFC046C0465C
:1003C000009F240000000000000000102100000039
:1003D000CC040000C046C04610B50F4B0F4A191D93
:1003E000043B934203D000221A600B1CF6E70C4A30
:1003F0000C490023891A89080131890004338B4292
:1004000007D0094CD0181C19043C24680438046037
:10041000F4E7FFF7A1FFFEE71C0000102800001022
:100420000000001014000010E8040000002934D07F
:100430000123002210B488422CD301242407A142B6
:1004400004D2814202D209011B01F8E7E400A14273
:1004500004D2814202D249005B00F8E7884201D30E
:10046000401A1A434C08A04202D3001B5C082243E6
:100470008C08A04202D3001B9C082243CC08A04257
:1004800002D3001BDC082243002803D01B0901D043
:100490000909E3E7101C10BC7047002801D00020B8
:1004A000C04307B4024802A14018029003BDC046F1
:1004B000190000000029F0D003B5FFF7B9FF0EBC0A
:1004C0004243891A1847C0467047C0466B69747426
:1004D000206F6E2038204C454473206F6E20616E73
:0804E0002048433539350A00BC
:1004E800000000000A000000204101000000000098
:0404F8000000000000
:04000003000003D91D
:00000001FF
